{
  "_format": "hh-sol-artifact-1",
  "contractName": "CropContract",
  "sourceName": "contracts/CropContract.sol",
  "abi": [
    {
      "inputs": [
        {
          "internalType": "uint256",
          "name": "_amount",
          "type": "uint256"
        },
        {
          "internalType": "uint256",
          "name": "_duration",
          "type": "uint256"
        },
        {
          "internalType": "address payable",
          "name": "_borrower",
          "type": "address"
        },
        {
          "internalType": "address payable",
          "name": "_lender",
          "type": "address"
        },
        {
          "internalType": "uint256",
          "name": "_firstStagePercentage",
          "type": "uint256"
        },
        {
          "internalType": "uint256",
          "name": "_secondStagePercentage",
          "type": "uint256"
        },
        {
          "internalType": "uint256",
          "name": "_thirdStagePercentage",
          "type": "uint256"
        }
      ],
      "stateMutability": "nonpayable",
      "type": "constructor"
    },
    {
      "inputs": [],
      "name": "NotOwner",
      "type": "error"
    },
    {
      "inputs": [],
      "name": "FirstStagefund",
      "outputs": [],
      "stateMutability": "payable",
      "type": "function"
    },
    {
      "inputs": [],
      "name": "SecondStagefund",
      "outputs": [],
      "stateMutability": "payable",
      "type": "function"
    },
    {
      "inputs": [],
      "name": "ThirdStagefund",
      "outputs": [],
      "stateMutability": "payable",
      "type": "function"
    },
    {
      "inputs": [],
      "name": "amount",
      "outputs": [
        {
          "internalType": "uint256",
          "name": "",
          "type": "uint256"
        }
      ],
      "stateMutability": "view",
      "type": "function"
    },
    {
      "inputs": [],
      "name": "borrower",
      "outputs": [
        {
          "internalType": "address payable",
          "name": "",
          "type": "address"
        }
      ],
      "stateMutability": "view",
      "type": "function"
    },
    {
      "inputs": [],
      "name": "end",
      "outputs": [
        {
          "internalType": "uint256",
          "name": "",
          "type": "uint256"
        }
      ],
      "stateMutability": "view",
      "type": "function"
    },
    {
      "inputs": [],
      "name": "lender",
      "outputs": [
        {
          "internalType": "address payable",
          "name": "",
          "type": "address"
        }
      ],
      "stateMutability": "view",
      "type": "function"
    },
    {
      "inputs": [],
      "name": "reimburseOwner",
      "outputs": [],
      "stateMutability": "payable",
      "type": "function"
    },
    {
      "inputs": [],
      "name": "state",
      "outputs": [
        {
          "internalType": "enum CropContract.State",
          "name": "",
          "type": "uint8"
        }
      ],
      "stateMutability": "view",
      "type": "function"
    },
    {
      "inputs": [],
      "name": "valTransfered",
      "outputs": [
        {
          "internalType": "uint256",
          "name": "",
          "type": "uint256"
        }
      ],
      "stateMutability": "view",
      "type": "function"
    }
  ],
  "bytecode": "0x608060405260008060006101000a81548160ff0219169083600481111562000050577f4e487b7100000000000000000000000000000000000000000000000000000000600052602160045260246000fd5b02179055503480156200006257600080fd5b5060405162001b2f38038062001b2f833981810160405281019062000088919062000175565b8660018190555085426200009d919062000222565b60028190555084600360006101000a81548173ffffffffffffffffffffffffffffffffffffffff021916908373ffffffffffffffffffffffffffffffffffffffff16021790555083600460006101000a81548173ffffffffffffffffffffffffffffffffffffffff021916908373ffffffffffffffffffffffffffffffffffffffff1602179055508260068190555081600781905550806008819055505050505050505062000320565b6000815190506200015881620002ec565b92915050565b6000815190506200016f8162000306565b92915050565b600080600080600080600060e0888a0312156200019157600080fd5b6000620001a18a828b016200015e565b9750506020620001b48a828b016200015e565b9650506040620001c78a828b0162000147565b9550506060620001da8a828b0162000147565b9450506080620001ed8a828b016200015e565b93505060a0620002008a828b016200015e565b92505060c0620002138a828b016200015e565b91505092959891949750929550565b60006200022f82620002b3565b91506200023c83620002b3565b9250827fffffffffffffffffffffffffffffffffffffffffffffffffffffffffffffffff03821115620002745762000273620002bd565b5b828201905092915050565b60006200028c8262000293565b9050919050565b600073ffffffffffffffffffffffffffffffffffffffff82169050919050565b6000819050919050565b7f4e487b7100000000000000000000000000000000000000000000000000000000600052601160045260246000fd5b620002f7816200027f565b81146200030357600080fd5b50565b6200031181620002b3565b81146200031d57600080fd5b50565b6117ff80620003306000396000f3fe6080604052600436106100915760003560e01c8063d7886d5c11610059578063d7886d5c1461014c578063e44d33db14610156578063ea09bd2414610160578063efbe1c1c1461016a578063fdb5c1691461019557610091565b806312d950b2146100965780637df1f1b9146100a0578063aa8c217c146100cb578063bcead63e146100f6578063c19d93fb14610121575b600080fd5b61009e6101c0565b005b3480156100ac57600080fd5b506100b5610340565b6040516100c29190611187565b60405180910390f35b3480156100d757600080fd5b506100e0610366565b6040516100ed919061131d565b60405180910390f35b34801561010257600080fd5b5061010b61036c565b6040516101189190611187565b60405180910390f35b34801561012d57600080fd5b50610136610392565b60405161014391906111a2565b60405180910390f35b6101546103a3565b005b61015e610523565b005b6101686106af565b005b34801561017657600080fd5b5061017f61082f565b60405161018c919061131d565b60405180910390f35b3480156101a157600080fd5b506101aa610835565b6040516101b7919061131d565b60405180910390f35b600460009054906101000a900473ffffffffffffffffffffffffffffffffffffffff1673ffffffffffffffffffffffffffffffffffffffff163373ffffffffffffffffffffffffffffffffffffffff1614610250576040517f08c379a0000000000000000000000000000000000000000000000000000000008152600401610247906112fd565b60405180910390fd5b6064670de0b6b3a764000060015460075461026b919061137a565b610275919061137a565b61027f9190611349565b60058190555060055434146102c9576040517f08c379a00000000000000000000000000000000000000000000000000000000081526004016102c0906111bd565b60405180910390fd5b6102d3600261083b565b600360009054906101000a900473ffffffffffffffffffffffffffffffffffffffff1673ffffffffffffffffffffffffffffffffffffffff166108fc6001549081150290604051600060405180830381858888f1935050505015801561033d573d6000803e3d6000fd5b50565b600360009054906101000a900473ffffffffffffffffffffffffffffffffffffffff1681565b60015481565b600460009054906101000a900473ffffffffffffffffffffffffffffffffffffffff1681565b60008054906101000a900460ff1681565b600460009054906101000a900473ffffffffffffffffffffffffffffffffffffffff1673ffffffffffffffffffffffffffffffffffffffff163373ffffffffffffffffffffffffffffffffffffffff1614610433576040517f08c379a000000000000000000000000000000000000000000000000000000000815260040161042a906112fd565b60405180910390fd5b6064670de0b6b3a764000060015460065461044e919061137a565b610458919061137a565b6104629190611349565b60058190555060055434146104ac576040517f08c379a00000000000000000000000000000000000000000000000000000000081526004016104a3906111dd565b60405180910390fd5b6104b6600161083b565b600360009054906101000a900473ffffffffffffffffffffffffffffffffffffffff1673ffffffffffffffffffffffffffffffffffffffff166108fc6001549081150290604051600060405180830381858888f19350505050158015610520573d6000803e3d6000fd5b50565b600360009054906101000a900473ffffffffffffffffffffffffffffffffffffffff1673ffffffffffffffffffffffffffffffffffffffff163373ffffffffffffffffffffffffffffffffffffffff16146105b3576040517f08c379a00000000000000000000000000000000000000000000000000000000081526004016105aa906112bd565b60405180910390fd5b600360009054906101000a900473ffffffffffffffffffffffffffffffffffffffff1673ffffffffffffffffffffffffffffffffffffffff163373ffffffffffffffffffffffffffffffffffffffff161461063a576040517f30cd747100000000000000000000000000000000000000000000000000000000815260040160405180910390fd5b60004711156106ad57600460009054906101000a900473ffffffffffffffffffffffffffffffffffffffff1673ffffffffffffffffffffffffffffffffffffffff166108fc479081150290604051600060405180830381858888f193505050501580156106ab573d6000803e3d6000fd5b505b565b600460009054906101000a900473ffffffffffffffffffffffffffffffffffffffff1673ffffffffffffffffffffffffffffffffffffffff163373ffffffffffffffffffffffffffffffffffffffff161461073f576040517f08c379a0000000000000000000000000000000000000000000000000000000008152600401610736906112fd565b60405180910390fd5b6064670de0b6b3a764000060015460085461075a919061137a565b610764919061137a565b61076e9190611349565b60058190555060055434146107b8576040517f08c379a00000000000000000000000000000000000000000000000000000000081526004016107af906112dd565b60405180910390fd5b6107c2600361083b565b600360009054906101000a900473ffffffffffffffffffffffffffffffffffffffff1673ffffffffffffffffffffffffffffffffffffffff166108fc6001549081150290604051600060405180830381858888f1935050505015801561082c573d6000803e3d6000fd5b50565b60025481565b60055481565b60006004811115610875577f4e487b7100000000000000000000000000000000000000000000000000000000600052602160045260246000fd5b8160048111156108ae577f4e487b7100000000000000000000000000000000000000000000000000000000600052602160045260246000fd5b14156108ef576040517f08c379a00000000000000000000000000000000000000000000000000000000081526004016108e69061129d565b60405180910390fd5b60008054906101000a900460ff166004811115610935577f4e487b7100000000000000000000000000000000000000000000000000000000600052602160045260246000fd5b81600481111561096e577f4e487b7100000000000000000000000000000000000000000000000000000000600052602160045260246000fd5b14156109af576040517f08c379a00000000000000000000000000000000000000000000000000000000081526004016109a6906111fd565b60405180910390fd5b600160048111156109e9577f4e487b7100000000000000000000000000000000000000000000000000000000600052602160045260246000fd5b816004811115610a22577f4e487b7100000000000000000000000000000000000000000000000000000000600052602160045260246000fd5b1415610b395760006004811115610a62577f4e487b7100000000000000000000000000000000000000000000000000000000600052602160045260246000fd5b60008054906101000a900460ff166004811115610aa8577f4e487b7100000000000000000000000000000000000000000000000000000000600052602160045260246000fd5b14610ae8576040517f08c379a0000000000000000000000000000000000000000000000000000000008152600401610adf9061121d565b60405180910390fd5b60016000806101000a81548160ff02191690836004811115610b33577f4e487b7100000000000000000000000000000000000000000000000000000000600052602160045260246000fd5b02179055505b60026004811115610b73577f4e487b7100000000000000000000000000000000000000000000000000000000600052602160045260246000fd5b816004811115610bac577f4e487b7100000000000000000000000000000000000000000000000000000000600052602160045260246000fd5b1415610cc35760016004811115610bec577f4e487b7100000000000000000000000000000000000000000000000000000000600052602160045260246000fd5b60008054906101000a900460ff166004811115610c32577f4e487b7100000000000000000000000000000000000000000000000000000000600052602160045260246000fd5b14610c72576040517f08c379a0000000000000000000000000000000000000000000000000000000008152600401610c699061127d565b60405180910390fd5b60026000806101000a81548160ff02191690836004811115610cbd577f4e487b7100000000000000000000000000000000000000000000000000000000600052602160045260246000fd5b02179055505b60036004811115610cfd577f4e487b7100000000000000000000000000000000000000000000000000000000600052602160045260246000fd5b816004811115610d36577f4e487b7100000000000000000000000000000000000000000000000000000000600052602160045260246000fd5b1415610e4d5760026004811115610d76577f4e487b7100000000000000000000000000000000000000000000000000000000600052602160045260246000fd5b60008054906101000a900460ff166004811115610dbc577f4e487b7100000000000000000000000000000000000000000000000000000000600052602160045260246000fd5b14610dfc576040517f08c379a0000000000000000000000000000000000000000000000000000000008152600401610df39061123d565b60405180910390fd5b60036000806101000a81548160ff02191690836004811115610e47577f4e487b7100000000000000000000000000000000000000000000000000000000600052602160045260246000fd5b02179055505b600480811115610e86577f4e487b7100000000000000000000000000000000000000000000000000000000600052602160045260246000fd5b816004811115610ebf577f4e487b7100000000000000000000000000000000000000000000000000000000600052602160045260246000fd5b1415610fd65760036004811115610eff577f4e487b7100000000000000000000000000000000000000000000000000000000600052602160045260246000fd5b60008054906101000a900460ff166004811115610f45577f4e487b7100000000000000000000000000000000000000000000000000000000600052602160045260246000fd5b14610f85576040517f08c379a0000000000000000000000000000000000000000000000000000000008152600401610f7c9061125d565b60405180910390fd5b60046000806101000a81548160ff02191690836004811115610fd0577f4e487b7100000000000000000000000000000000000000000000000000000000600052602160045260246000fd5b02179055505b50565b610fe2816113d4565b82525050565b610ff181611423565b82525050565b6000611004602983611338565b915061100f826114c2565b604082019050919050565b6000611027602883611338565b915061103282611511565b604082019050919050565b600061104a602283611338565b915061105582611560565b604082019050919050565b600061106d603583611338565b9150611078826115af565b604082019050919050565b6000611090603a83611338565b915061109b826115fe565b604082019050919050565b60006110b3603083611338565b91506110be8261164d565b604082019050919050565b60006110d6603a83611338565b91506110e18261169c565b604082019050919050565b60006110f9601f83611338565b9150611104826116eb565b602082019050919050565b600061111c601783611338565b915061112782611714565b602082019050919050565b600061113f602883611338565b915061114a8261173d565b604082019050919050565b6000611162601483611338565b915061116d8261178c565b602082019050919050565b61118181611419565b82525050565b600060208201905061119c6000830184610fd9565b92915050565b60006020820190506111b76000830184610fe8565b92915050565b600060208201905081810360008301526111d681610ff7565b9050919050565b600060208201905081810360008301526111f68161101a565b9050919050565b600060208201905081810360008301526112168161103d565b9050919050565b6000602082019050818103600083015261123681611060565b9050919050565b6000602082019050818103600083015261125681611083565b9050919050565b60006020820190508181036000830152611276816110a6565b9050919050565b60006020820190508181036000830152611296816110c9565b9050919050565b600060208201905081810360008301526112b6816110ec565b9050919050565b600060208201905081810360008301526112d68161110f565b9050919050565b600060208201905081810360008301526112f681611132565b9050919050565b6000602082019050818103600083015261131681611155565b9050919050565b60006020820190506113326000830184611178565b92915050565b600082825260208201905092915050565b600061135482611419565b915061135f83611419565b92508261136f5761136e611464565b5b828204905092915050565b600061138582611419565b915061139083611419565b9250817fffffffffffffffffffffffffffffffffffffffffffffffffffffffffffffffff04831182151516156113c9576113c8611435565b5b828202905092915050565b60006113df826113f9565b9050919050565b60008190506113f4826117b5565b919050565b600073ffffffffffffffffffffffffffffffffffffffff82169050919050565b6000819050919050565b600061142e826113e6565b9050919050565b7f4e487b7100000000000000000000000000000000000000000000000000000000600052601160045260246000fd5b7f4e487b7100000000000000000000000000000000000000000000000000000000600052601260045260246000fd5b7f4e487b7100000000000000000000000000000000000000000000000000000000600052602160045260246000fd5b7f4d7573742067697665206174206c656173743a207365636f6e6453746167655060008201527f657263656e746167650000000000000000000000000000000000000000000000602082015250565b7f4d7573742067697665206174206c656173743a2066697273745374616765506560008201527f7263656e74616765000000000000000000000000000000000000000000000000602082015250565b7f43616e6e6f74207472616e736974696f6e20746f2063757272656e742053544160008201527f5445000000000000000000000000000000000000000000000000000000000000602082015250565b7f43616e206f6e6c79207472616e736974696f6e20746f2066697273742073746160008201527f67652066726f6d2070656e64696e672073746174650000000000000000000000602082015250565b7f43616e206f6e6c79207472616e736974696f6e20746f2074686972642073746160008201527f67652066726f6d207365636f6e64207374616765207374617465000000000000602082015250565b7f43616e206f6e6c79207472616e736974696f6e20746f2061637469766520667260008201527f6f6d2070656e64696e6720737461746500000000000000000000000000000000602082015250565b7f43616e206f6e6c79207472616e736974696f6e20746f207365636f6e6420737460008201527f6167652066726f6d206669727374207374616765207374617465000000000000602082015250565b7f43616e6e6f7420676f206261636b20746f2050454e44494e4720535441544500600082015250565b7f53656e646572206973206e6f7420626f72726f77657221000000000000000000600082015250565b7f4d7573742067697665206174206c656173743a2074686972645374616765506560008201527f7263656e74616765000000000000000000000000000000000000000000000000602082015250565b7f4f6e6c79206c656e6465722063616e206c616e64000000000000000000000000600082015250565b600581106117c6576117c5611493565b5b5056fea2646970667358221220b5b3697599500b4c85b935a0a68666516dddbc18f9530dc8762a5de6fae017e464736f6c63430008040033",
  "linkReferences": {},
  "deployedLinkReferences": {}
}